:100000000C9432020C945A020C945A020C945A0228
:100010000C945A020C945A020C945A020C947308D1
:100020000C945A020C945A020C945A020C945A02E0
:100030000C945A020C94E9080C945A020C945A023B
:100040000C9442070C945A020C947D060C945706AB
:100050000C945A020C945A020C945A020C945A02B0
:100060000C945A020C945A02FAF6EEE6DED6CEC68C
:10007000BEB6AEA69E968E867E766E665E564E4660
:100080003E36292119110901010911192129313996
:10009000414951596169717981899199A1A9B1B990
:1000A000C1C9D1D9E1EBF5FF011223344556677878
:1000B000899AABBCCDDEEFFFEFDFCFBFAF9F8F7F65
:1000C0006F5F4F3F2F1F0F0101060F1D30455C75FD
:1000D0008FA8BFD4E5F3FBFFFEF8EDDECBB59C8324
:1000E0006A513B27160A0301000000000000005F70
:1000F00000000007000700147F147F14242A7F2AC1
:10010000122313086462364955225000050300008B
:10011000001C2241000041221C00082A1C2A080859
:10012000083E080800503000000808080808006071
:1001300060000020100804023E5149453E00427F05
:10014000400042615149462141454B311814127F0C
:100150001027454545393C4A494930017109050395
:100160003649494936064949291E003636000000FD
:1001700056360000000814224114141414144122AD
:100180001408000201510906324979413E7E1111DD
:10019000117E7F494949363E414141227F414122FA
:1001A0001C7F494949417F090901013E41415132C2
:1001B0007F0808087F00417F41002040413F017FC8
:1001C000081422417F404040407F0204027F7F04A8
:1001D00008107F3E4141413E7F090909063E4151D9
:1001E000215E7F09192946464949493101017F01AC
:1001F000013F4040403F1F2040201F7F2018207FAC
:1002000063140814630304780403615149454300EF
:10021000007F4141020408102041417F0000040298
:1002200001020440404040400001020400205454B8
:1002300054787F484444383844444420384444483F
:100240007F3854545418087E090102081454543C51
:100250007F0804047800447D40002040443D0000B5
:100260007F10284400417F40007C041804787C08FB
:1002700004047838444444387C14141408081414D2
:10028000187C7C080404084854545420043F44401B
:10029000203C4040207C1C2040201C3C4030403C06
:1002A00044281028440C5050503C4464544C4400A2
:1002B0000836410000007F000000413608000808B1
:1002C0002A1C08081C2A08087C1414140838444402
:1002D000442004047C04040C5050503C3048FC483A
:1002E0003044281028447C404040FC0C1010107C06
:1002F0007C407C407C7C407C40FC047C5050207CDA
:100300005050207C7C5050200028445454387C109D
:10031000384438085434147C7E1111117E7F4949C9
:1003200049337F494949367F01010103E0514F417B
:10033000FF7F4949494177087F0877414949493654
:100340007F1008047F7C2112097C7F081422412041
:10035000413F017F7F020C027F7F0808087F3E41FA
:1003600041413E7F0101017F7F090909063E41416C
:10037000412201017F010147281008071C227F222A
:100380001C63140814637F404040FF070808087F7F
:100390007F407F407F7F407F40FF017F4848307F24
:1003A0004830007F007F484830224149493E7F085D
:1003B0003E413E462919097F20545454783C4A4A0C
:1003C00049317C545428007C0404040CE0544C440F
:1003D000FC38545454186C107C106C444454542809
:1003E0007C2010087C7C4122117C7C102844002059
:1003F000443C047C7C0810087C7C1010107C384441
:100400004444387C0404047C0000000023002600DF
:10041000290000000000250028002B00000000003B
:10042000240027002A000404040404040404020233
:100430000202020203030303030301020408102063
:10044000408001020408102001020408102000006E
:100450000008000201000003040700000000000083
:100460000000761C11241FBECFEFD8E0DEBFCDBF49
:1004700013E0A0E0B1E0ECE7FFE302C005900D92CD
:10048000A23FB107D9F727E0A2EFB3E001C01D9268
:10049000A03BB207E1F712E0C2E3D2E004C021972B
:1004A000FE010E946E1DC133D107C9F70E94490D9C
:1004B0000C94BC1F0C940000FC01918D828D981748
:1004C00061F0828DDF01A80FB11D5D968C91928D38
:1004D0009F5F9F73928F90E008958FEF9FEF089535
:1004E000FC01918D828D981731F0828DE80FF11DFE
:1004F000858D90E008958FEF9FEF0895FC01918D19
:10050000228D892F90E0805C9F4F821B91098F7311
:10051000992708958BEE96E00E947E0221E0892BB8
:1005200009F420E0822F0895FC01848DDF01A80FDB
:10053000B11DA35ABF4F2C91848D90E001968F730B
:100540009927848FA689B7892C93A089B1898C912A
:1005500080648C93938D848D981306C00288F389F0
:10056000E02D80818F7D80830895EF92FF920F931D
:100570001F93CF93DF93EC0181E0888F9B8D8C8D4F
:10058000981305C0E889F989808185FD24C0F62E7D
:100590000B8D10E00F5F1F4F0F731127E02E8C8D16
:1005A000E8120CC00FB607FCFACFE889F989808100
:1005B00085FFF5CFCE010E949402F1CF8B8DFE0115
:1005C000E80FF11DE35AFF4FF0820B8FEA89FB8998
:1005D0008081806207C0EE89FF896083E889F9899C
:1005E00080818064808381E090E0DF91CF911F91D2
:1005F0000F91FF90EF900895CF93DF93EC01888DDA
:100600008823C9F0EA89FB89808185FD05C0A88916
:10061000B9898C9186FD0FC00FB607FCF5CF80819C
:1006200085FFF2CFA889B9898C9185FFEDCFCE01E6
:100630000E949402E7CFDF91CF91089580E090E08F
:10064000892B29F00E948A0281110C9400000895E0
:10065000833081F028F4813099F08230A1F0089540
:100660008730A9F08830B9F08430D1F480918000CF
:100670008F7D03C0809180008F77809380000895E4
:1006800084B58F7702C084B58F7D84BD0895809135
:10069000B0008F7703C08091B0008F7D8093B00051
:1006A00008953FB7F8948091E7069091E806A091ED
:1006B000E906B091EA0626B5A89B05C02F3F19F0C0
:1006C0000196A11DB11D3FBFBA2FA92F982F8827D2
:1006D000820F911DA11DB11DBC01CD0142E0660F2D
:1006E000771F881F991F4A95D1F70895FB0164353C
:1006F0007105A0F54033510588F5BA0183E0759581
:1007000067958A95E1F747705527232B99F024E5E3
:10071000269FC001279F900D1124E80FF91FE35F6A
:10072000FE4F81E090E001C0880F4A95EAF7908182
:10073000892B13C024E5269FC001279F900D11240B
:10074000E80FF91FE35FFE4F81E090E001C0880FE2
:100750004A95EAF7809590818923808308950895CA
:100760002F923F924F925F926F927F928F929F92C1
:10077000AF92BF92CF92DF92EF92FF920F931F93AF
:10078000CF93DF93CDB7DEB72D970FB6F894DEBFCA
:100790000FBECDBF20EE260F203A08F0F4C09D8793
:1007A0008C87DC015496BC91BB83FC010288F389E1
:1007B000E02DFD83EC83DC0150960D90BC91A02DC3
:1007C000BF83AE83FC0186849784C484D5848085EE
:1007D0009185C816D906C4F0AC85BD8554964C9158
:1007E0005497242F30E01C968D919C911D97B6E074
:1007F0004B9F800D911D1124EC85FD859587848785
:100800004689411199C0BCC0AC85BD851A968D91B1
:100810009C911B9788169906FCF6BB81AB2EB12CD8
:10082000C601E6E0BE9F800D911D11241816190621
:100830009CF6C50123E0880F991F2A95E1F7880DE2
:10084000991D1816190644F670E06052710925E0EA
:10085000269FC001279F900D1124160119829C012B
:100860002C193D0939872887C40108969B878A87F8
:100870009981953049F0E885F985E20DF31DE8513D
:10088000FF4FA491AA8301C01A8224013401BA81C6
:10089000B0FF13C0AC85BD85ED91FC91BB81B1303B
:1008A00031F40480F581E02D2E813F8119C006844A
:1008B000F785E02DEE80FF801EC0EC81FD812E814A
:1008C0003F81E217F307F1F0AC85BD85ED91FC9116
:1008D000BB81B13059F40480F581E02D2C813D813C
:1008E000A301B1018C859D8509950CC00684F7850F
:1008F000E02DEC80FD8085019501A201B6018C857B
:100900009D850995EA81E695EA83FFEF6F1A7F0AD4
:100910004A0C5B1C2A853B856216730609F0B7CF2B
:1009200039813F5F39835FEF251A350ACA0CDB1C1A
:10093000363009F09DCF50CF4AEF4203B001439FBC
:10094000700D1124AC85BD8518964D915C91199759
:10095000460F571F481759079CF483E0220F331F97
:100960008A95E1F71E968D919C911F97280F391F4C
:100970001F963C932E931E971D961C921E921C97B9
:1009800081E090E000C02D960FB6F894DEBF0FBE58
:10099000CDBFDF91CF911F910F91FF90EF90DF902E
:1009A000CF90BF90AF909F908F907F906F905F900F
:1009B0004F903F902F900895EF92FF920F931F93C7
:1009C000DC01ED91FC9111971A960D911C911B97EA
:1009D00018962D913C9119970684F785E02D7B019F
:1009E00040E050E060E070E009951F910F91FF90AA
:1009F000EF9008956F927F928F929F92AF92BF92E5
:100A0000CF92DF92EF92FF920F931F93CF93DF93DA
:100A10006C015A014801EB013B01620E731EC615C1
:100A2000D70574F4D601ED91FC910084F185E02D99
:100A300087019401A501BE01C60109952196EFCF5A
:100A4000DF91CF911F910F91FF90EF90DF90CF90AA
:100A5000BF90AF909F908F907F906F900895EF928E
:100A6000FF920F931F93DC01ED91FC91260F371F2E
:100A7000215031090680F781E02D78018A0109951E
:100A80001F910F91FF90EF900895EF92FF920F93B7
:100A90001F937801DC01ED91FC91240F351F890132
:100AA000015011090680F781E02D9B0109951F91E6
:100AB0000F91FF90EF9008956F927F928F929F9287
:100AC000AF92BF92CF92DF92EF92FF920F931F935C
:100AD000CF93DF93EC014B015A0169013801E881A2
:100AE000F9810284F385E02D87010995E881F98178
:100AF000A501460D571D415051090284F385E02D93
:100B00009601B401CE010995E881F9810084F1854F
:100B1000E02D9301A501B401CE010995E881F98189
:100B2000C80CD91CB601615071090084F185E02D13
:100B30009301A501CE010995DF91CF911F910F91EE
:100B4000FF90EF90DF90CF90BF90AF909F908F90ED
:100B50007F906F9008952F923F924F925F926F9285
:100B60007F928F929F92AF92BF92CF92DF92EF923D
:100B7000FF920F931F93CF93DF9300D01F92CDB7B7
:100B8000DEB74C017B836A836A0159011701980122
:100B9000241B350B37FF03C0319521953109C50161
:100BA0004A815B81841B950B97FF03C091958195CA
:100BB000910951E059838217930714F019820BC0F1
:100BC0009A2D8B2D5801092F182F9A818B81DB824A
:100BD000CA82C92ED82E8A819B81A816B9065CF4D8
:100BE0009C2D8D2D6801092F182F9A818B81BB8236
:100BF000AA82A92EB82E2501AA81BB814A1A5B0AB6
:100C000038016C187D0877FE03C0719461947108F7
:100C1000720157FE03C0BFEFEB1AFB0AF594E7948D
:100C2000C016D1061CF00FEF1FEF1FC001E010E04F
:100C30001CC0D401ED91FC91B9810480F581E02DB7
:100C40009101BB23C1F04A815B81B601C4010995C2
:100C5000E618F708F7FE04C0C00ED11EE40CF51C20
:100C6000EA81FB813196FB83EA834A815B81A4168A
:100C7000B506FCF604C0A6016A817B81E7CF0F9020
:100C80000F900F90DF91CF911F910F91FF90EF90F8
:100C9000DF90CF90BF90AF909F908F907F906F909C
:100CA0005F904F903F902F9008950E94B71F1F9222
:100CB0000F920FB60F9211242F933F934F935F9390
:100CC0006F937F938F939F93AF93BF93EF93FF9314
:100CD0008BEE96E00E949402FF91EF91BF91AF914D
:100CE0009F918F917F916F915F914F913F912F9144
:100CF0000F900FBE0F901F9018951F920F920FB676
:100D00000F9211242F938F939F93EF93FF93E09172
:100D1000FB06F091FC068081E0910107F09102074B
:100D200082FD12C09081809104078F5F8F732091A4
:100D30000507821751F0E0910407F0E0E551F94F03
:100D4000958F8093040701C08081FF91EF919F915F
:100D50008F912F910F900FBE0F901F901895CF93EA
:100D6000DF93282F30E0F901E25BFB4F8491F9011A
:100D7000E65CFB4FD491F901EA5DFB4FC491CC23B3
:100D800091F081110E942803EC2FF0E0EE0FFF1F7D
:100D9000E85FFB4FA591B491EC91ED2381E090E0E9
:100DA00021F480E002C080E090E0DF91CF910895CF
:100DB0001F93CF93DF93282F30E0F901E25BFB4FC5
:100DC0008491F901E65CFB4FD491F901EA5DFB4F98
:100DD000C491CC23C9F0162F81110E942803EC2F57
:100DE000F0E0EE0FFF1FEE5EFB4FA591B4918FB7C1
:100DF000F894111105C09C91ED2FE095E92302C0F4
:100E0000EC91ED2BEC938FBFDF91CF911F91089563
:100E10008F929F92AF92BF92CF92DF92EF92FF920A
:100E20006B017C010E9451034B015C01C114D10490
:100E3000E104F104F1F00E945103DC01CB018819B7
:100E40009909AA09BB09883E9340A105B10570F331
:100E500021E0C21AD108E108F10888EE880E83E08B
:100E6000981EA11CB11CC114D104E104F10419F7AE
:100E7000DDCFFF90EF90DF90CF90BF90AF909F902D
:100E80008F9008951F920F920FB60F9211242F93F7
:100E90003F938F939F93AF93BF938091E30690917D
:100EA000E406A091E506B091E6063091E20623E063
:100EB000230F2D3720F40196A11DB11D05C026E892
:100EC000230F0296A11DB11D2093E2068093E30635
:100ED0009093E406A093E506B093E6068091E706BA
:100EE0009091E806A091E906B091EA060196A11D4D
:100EF000B11D8093E7069093E806A093E906B093AE
:100F0000EA06BF91AF919F918F913F912F910F90E2
:100F10000FBE0F901F901895CF92DF92EF92FF9225
:100F2000CF936B017C019B01AC016EEF7FEF81E001
:100F300090E00E94CF1C9B01AC0160E074E284EF62
:100F400090E00E94FF1CC0E0EC2FF0E0EE0FFF1FCE
:100F5000EB5EFC4F80819181CF5F82179307A0F3F6
:100F6000A7019601220F331F441F551FEC2FF0E0FD
:100F7000EE0FFF1FEB5EFC4FA081B1810E944F1D61
:100F80009B01AC0160E074E284EF90E00E94FF1CE2
:100F9000309387002093860080918100C770887FFE
:100FA000C82BC093810081E0CF91FF90EF90DF903C
:100FB000CF900895E0E8F0E080818C7F8083E1E8C5
:100FC000F0E08081877E8061808364EF71E080E063
:100FD00090E00E948C07E0EBF0E080818C7F8160E4
:100FE0008083E1EBF0E080818860808364EF71E0D2
:100FF00080E090E00C942E0A0F931F93CF93DF9321
:101000001F92CDB7DEB7182F69830E944F0C6981FC
:10101000611102C060E003C06F3F49F461E0812FBD
:101020000F90DF91CF911F910F910C94D806E12F73
:10103000F0E0E25BFB4FE491E330D1F050F4E230BA
:1010400079F584B5806284BD27B530E008E410E00E
:1010500038C0E430C9F0E83019F58091B000806202
:101060008093B0002091B30030E004EB10E029C081
:10107000809180008068809380002091860030916C
:10108000870008E810E00FC08091800080628093A4
:10109000800020918600309187000AE810E003C0AC
:1010A00067FFB8CFBBCFA62FB0E00E94401D2FEF47
:1010B00030E040E050E00E94FF1CF80131832083C3
:1010C0000CC0A62FB0E00E94401D2FEF30E040E0A2
:1010D00050E00E94FF1CF80120830F90DF91CF9118
:1010E0001F910F9108951F920F920FB60F92112426
:1010F0000F931F932F933F934F935F936F937F9320
:101100008F939F93AF93BF9320918400309185007C
:10111000B09B0BC081E086BB8091F8039091F903EE
:1011200001969093F9038093F8038091FA039091CC
:10113000FB0301964091F2035091F3038417950746
:1011400098F11092FB031092FA038091F8039091AA
:10115000F903A0E0B0E0DC0199278827820F931FF4
:10116000A11DB11D4091F4035091F5036091F60368
:101170007091F7038C019D01041B150B260B370B97
:101180000093FD031093FE032093FF0330930004AC
:101190008093F4039093F503A093F603B093F703C1
:1011A00081E08093FC0304C09093FB038093FA03D7
:1011B000BF91AF919F918F917F916F915F914F916F
:1011C0003F912F911F910F910F900FBE0F901F9085
:1011D00018951F920F920FB60F9211242F933F93E1
:1011E0004F935F936F937F938F939F93AF93BF932F
:1011F000EF93FF938091E0069091E1069093850034
:1012000080938400E091DE06F091DF060995FF915E
:10121000EF91BF91AF919F918F917F916F915F916E
:101220004F913F912F910F900FBE0F901F901895E7
:101230000E943E0C8091010481110BC0109299070D
:101240001092980781E090E090939B0780939A0713
:101250000AC081E090E090939B0780939A07909357
:1012600099078093980785E190E090939507809384
:101270009407109297071092960782EC93E00E94D1
:10128000300C80910104813059F41092990710922A
:10129000980781E090E090939B0780939A070AC09B
:1012A00081E090E090939B0780939A079093990731
:1012B000809398078AE090E0909395078093940735
:1012C000909397078093960789EC93E00E94300CE7
:1012D00080910104823059F4109299071092980776
:1012E00081E090E090939B0780939A070AC081E089
:1012F00090E090939B0780939A079093990780932F
:10130000980788E190E0909395078093940784E193
:1013100090E0909397078093960784ED93E00E9466
:10132000300C80910104833059F410929907109287
:10133000980781E090E090939B0780939A070AC0FA
:1013400081E090E090939B0780939A079093990790
:101350008093980780E190E090939507809394079D
:101360008EE190E090939707809396078AED93E043
:101370000E94300C81E090E090939B0780939A0745
:1013800090939907809398070C94CF0A28E030E057
:1013900040E8E091A607F091A70750819091AD0732
:1013A000909595239083E091A407F091A5079091E3
:1013B000AC07542F582319F05081952B03C050814E
:1013C000909595239083E091A607F091A70750810F
:1013D0009091AD07952B9083469521503109C9F620
:1013E0000895CF92DF92EF92FF920F931F93CF93C6
:1013F000DF936C017A018B01C0E0D0E0CE15DF05F0
:1014000089F0D8016D918D01D601ED91FC9101908B
:10141000F081E02DC6010995892B11F47E0102C0EF
:101420002196ECCFC701DF91CF911F910F91FF90D3
:10143000EF90DF90CF900895009769F0FC01019044
:101440000020E9F73197AF01481B590BBC0188E830
:1014500097E00C94F10980E090E008958F929F92BC
:10146000AF92BF92CF92DF92EF92FF920F931F93B2
:10147000CF936B017C01AEEFB1E09B01AC010E9408
:101480004F1D9B01AC0160E074E284EF90E00E948C
:10149000FF1C8901CC0CDD1CEE1CFF1CC0E0812C64
:1014A00024E2922E24EFA22EB12CCF5FEC2FF0E09D
:1014B000EE0FFF1FEB5FFC4F80819181801791073A
:1014C000A0F38C01DC01A70196010E944F1D9B0136
:1014D000AC01C501B4010E94FF1C2F3F310509F08A
:1014E00020F72093B3008091B100C770887FC82B8C
:1014F000C093B10081E0CF911F910F91FF90EF90C9
:10150000DF90CF90BF90AF909F908F9008950F93F2
:101510001F93E7E5F4E0E4912DEF2E0F223078F4ED
:101520008B019C010150110921093109003814482F
:101530002E413105A8F41F910F910C948C07E830CF
:1015400079F48B019C010F511109210931090236EF
:1015500014482E41310520F41F910F910C942E0A4E
:1015600080E01F910F910895CF93C82F60E0809184
:10157000A1070E94D8068091A30718161CF460E00A
:101580000E94D8068C2F0E94C6098091A3071816C6
:1015900024F461E0CF910C94D806CF910895EF9296
:1015A000FF920F931F93CF938DE0E82E81E0F82EEA
:1015B000C0E08C2F80640E94B40A80E80E94B40AC4
:1015C00061E08091A1070E94D8068091A3071816B8
:1015D0001CF460E00E94D80600E010E0F701E00F84
:1015E000F11F80810E94C6090F5F1F4F043511054E
:1015F000A9F78091A30718161CF461E00E94D80691
:10160000CF5F84E5E80EF11CC63099F680E4CF91F7
:101610001F910F91FF90EF900C94B40A0C941C0A48
:10162000E0918807F09189070190F081E02D682F03
:1016300088E897E009948F929F92AF92BF920F93A0
:101640001F93CF93DF93CDB7DEB7A1970FB6F89472
:10165000DEBF0FBECDBF19A2423008F44AE08E01B2
:101660000F5D1F4F842E912CA12CB12CA50194014C
:101670000E94FF1CE62FB901CA0101501109EA308E
:1016800014F4E05D01C0E95CD801EC93232B242B1A
:10169000252B61F7C8010E941C0AA1960FB6F89489
:1016A000DEBF0FBECDBFDF91CF911F910F91BF90D5
:1016B000AF909F908F9008954F925F926F927F921C
:1016C0008F929F92AF92BF92CF92DF92EF92FF9252
:1016D0006B017C01B42E9B01AC010E94B21F8823D8
:1016E00019F083EE93E027C026013701E89477F8DC
:1016F0002FEF3FEF4FE75FE7C301B2010E94B21F38
:1017000081110DC02FEF3FEF4FE75FE7C301B2013B
:101710000E94E11D18161CF487EE93E00CC02FEF19
:101720003FEF4FE75FE4C701B6010E94401F181664
:1017300084F48BEE93E0FF90EF90DF90CF90BF901A
:10174000AF909F908F907F906F905F904F900C9490
:101750001C0A2FEF3FEF4FE75FECC701B6010E9475
:10176000E11D87FDE6CF20E030E0A901C701B60109
:101770000E94E11D87FF09C08DE20E94100B4C0101
:10178000F7FAF094F7F8F09402C0812C912CA12C78
:1017900060E070E080E09FE3AB1440F420E030E0D4
:1017A00040E251E40E94E61DA394F6CF9B01AC01F8
:1017B000C701B6010E94751D2B013C010E945F1EEE
:1017C0006B017C010E948E1E9B01AC01C301B20122
:1017D0000E94741D2B013C014AE0C701B6010E9422
:1017E0001B0B7C01E80CF91CBB2029F08EE20E9447
:1017F000100BE80EF91EDB2CDD2021F120E030E09B
:1018000040E251E4C301B2010E94451F2B013C019B
:101810000E945F1E4B01A12CB12C4AE0C501B4010E
:101820000E941B0BE80EF91EC501B4010E948E1E1A
:101830009B01AC01C301B2010E94741D2B013C014C
:10184000DA94DACFC701FF90EF90DF90CF90BF908E
:10185000AF909F908F907F906F905F904F90089582
:10186000CF93DF930E941C0AEC018FEE93E00E945D
:101870001C0A8C0F9D1FDF91CF91089588EF91E096
:10188000EDE0F1E0DF019C011D9221503040E1F7D5
:10189000E8E8F7E01586148617861686089590E026
:1018A000FC01E65CFB4F2491FC01EA5DFB4F849157
:1018B000882399F090E0880F991FFC01E45EFB4FAC
:1018C000A591B491FC01EE5EFB4F859194918FB789
:1018D000F894EC91E22BEC938FBF0895CF92DF92B6
:1018E000EF92FF92CF93DF9397FF19C06B017C01BA
:1018F0008DE20E94100BEC0166277727CB016C1953
:101900007D098E099F094AE00E941B0B8C0F9D1FC9
:10191000DF91CF91FF90EF90DF90CF9008954AE054
:10192000DF91CF91FF90EF90DF90CF900C941B0B45
:101930002F923F924F925F926F927F928F929F92DF
:10194000AF92BF92CF92DF92EF92FF920F931F93CD
:10195000CF93DF9300D000D000D0CDB7DEB73C01ED
:101960007E836D834A019B01220F331F2F5F3F4F00
:10197000A301461B570B840160E570E088E897E0FF
:101980000E94450581E090E07C01ED81FE81EE1A28
:10199000FF0ACF019195819591091C01220C331CFE
:1019A000C12CD12CAA24A394B12C2D813E81C21626
:1019B000D3060CF055C0F7FC0BC02D813E812150A1
:1019C00031093E832D8332E0230E311CE20CF31CDF
:1019D0004FEFC41AD40A52E0A50EB11CEA0CFB1C4E
:1019E0004D805E80440C551C8FEF481A580AB60192
:1019F000605B7F4F84019201F3014D815E81E41BA6
:101A0000F50BFA83E983AF0188E897E00E9445056A
:101A1000C3018C199D099C838B839501AC016D8159
:101A20007E81605B7F4F88E897E00E94450560E516
:101A300070E06C197D09920149815A8188E897E02C
:101A40000E94450595014B815C8160E570E0ED8168
:101A5000FE816E1B7F0B88E897E00E944505A5CFAD
:101A600026960FB6F894DEBF0FBECDBFDF91CF91A3
:101A70001F910F91FF90EF90DF90CF90BF90AF90AC
:101A80009F908F907F906F905F904F903F902F909E
:101A90000895789484B5826084BD84B5816084BDE6
:101AA00085B5826085BD85B5816085BD80916E00FC
:101AB000816080936E00109281008091810082602D
:101AC000809381008091810081608093810080916A
:101AD00080008160809380008091B1008460809359
:101AE000B1008091B00081608093B00080917A0055
:101AF000846080937A0080917A00826080937A007B
:101B000080917A00816080937A0080917A00806869
:101B100080937A001092C10061E08DE00E94D806A7
:101B200061E08BE00E94D80661E08CE00E94D8065C
:101B30008DE00E94AF06C1E0892B09F4C0E08BE084
:101B40000E94AF06892B09F0CF5F8CE00E94AF06A0
:101B5000892B09F0CF5FC23018F0109217040FC024
:101B600060E08DE00E94D80660E08BE00E94D8061D
:101B700060E08CE00E94D80681E080931704809199
:101B80009F070E944F0C8091A0070E944F0C8091EC
:101B9000A1070E944F0C8091A207181614F40E940E
:101BA0004F0C8091A307181614F40E944F0C8091DB
:101BB000A20718168CF460E00E94D8060FEF19E611
:101BC00028E1015010402040E1F700C0000061E032
:101BD0008091A2070E94D8068091A007082E000CD1
:101BE000990BFC01EA5DFB4FE491F0E0EE0FFF1F63
:101BF000EE5EFB4F259134913093A7072093A60703
:101C0000FC01E65CFB4FE491E093AD0780919F07F8
:101C1000082E000C990BFC01EA5DFB4FE491F0E00B
:101C2000EE0FFF1FEE5EFB4F259134913093A50719
:101C30002093A407FC01E65CFB4FE491E093AC0722
:101C40008091A307082E000C990BFC01EA5DFB4F65
:101C5000E491F0E0EE0FFF1FEE5EFB4F2591349113
:101C60003093A9072093A807FC01E65CFB4FE491A1
:101C7000E093AE078091A107082E000C990BFC01A0
:101C8000EA5DFB4FE491F0E0EE0FFF1FEE5EFB4FCD
:101C9000259134913093AB072093AA07FC01E65CB1
:101CA000FB4FE491E093AF0781E20E94B40A84E124
:101CB0000E94B40A88EA0E94B40A80E20E94B40A30
:101CC0008CE00E94B40A0E94CF0A81E20E94B40A0A
:101CD0008DEA0E94B40A80E20E94B40A0E943E0C7F
:101CE0000E94CF0AC1E0D0E064E1462E512C72E19F
:101CF000272E312C0DE010E0ECE1EE2EF12CFCE073
:101D0000CF2ED12CA6E2AA2EB12CBEE18B2E912C87
:101D100060901704712C8CE00E94AF06681679065B
:101D200009F426C10E943E0C8091DD06811109C094
:101D30001092990710929807D0939B07C0939A0727
:101D400008C0D0939B07C0939A07D0939907C0937C
:101D50009807509295074092940710929707109217
:101D6000960789E493E00E94300C8091DD06813073
:101D700049F41092990710929807D0939B07C0934B
:101D80009A0708C0D0939B07C0939A07D0939907EE
:101D9000C09398074AE050E050939507409394070A
:101DA00088E090E0909397078093960781E593E011
:101DB0000E94300C8091DD06823049F41092990720
:101DC00010929807D0939B07C0939A0708C0D093AE
:101DD0009B07C0939A07D0939907C0939807A3E0F5
:101DE000B0E0B0939507A0939407309297072092A4
:101DF00096078DE593E00E94300C8091DD068330DC
:101E000049F41092990710929807D0939B07C093BA
:101E10009A0708C0D0939B07C0939A07D09399075D
:101E2000C09398071093950700939407F092970733
:101E3000E09296078BE693E00E94300CD0939B07CC
:101E4000C0939A07D0939907C0939807D0929507AB
:101E5000C0929407B0929707A092960786E793E006
:101E60000E940E0B2EE130E04091070450910804CF
:101E7000B5E4B0937C0080917A00806480937A000E
:101E800080917A0086FDFCCF809178006091790086
:101E900090E0962B840F951F90930804809307047D
:101EA0002150310909F7B4010E94EB1C709308041A
:101EB00060930704072E000C880B990B0E94901E5C
:101EC00020E030E040EA50E40E94451F20E030E08E
:101ED00040E85AE30E94451F42E050E00E945C0B3C
:101EE0008CE793E00E940E0B1092080410920704F6
:101EF000709017048DE00E94AF0621E0892B09F055
:101F000020E0721659F08091DD068F5F8093DD0628
:101F100064E670E080E090E00E9408078BE00E9499
:101F2000AF0621E0892B09F020E0721659F080916C
:101F3000DD0681508093DD0664E670E080E090E08D
:101F40000E9408078091DD068F3F19F483E080939B
:101F5000DD068091DD06843010F01092DD0662E32C
:101F600070E080E090E00E9408070E94CF0AD0CE87
:101F70008091DD06811151C01092FB031092FA038B
:101F80001092F9031092F8031092F4031092F503E3
:101F90001092F6031092F7031092FC0380918000D8
:101FA0008093030480918100809302041092810049
:101FB00010928000109285001092840081E086BB10
:101FC00010926F008091B000809305048091B10061
:101FD000809304041092B10082E08093B0009CE7EB
:101FE0009093B30097E09093060487BB1092B200E1
:101FF0002DE730E03093F3032093F2032FB7F894EA
:1020000083BD309106043093B100809370008BE063
:102010008150F1F7909381002FBF8091DD068130D0
:1020200059F40E94DA0760910001709101018091DA
:1020300002019091030108C0823041F40E94DA0746
:1020400060E47DE083E090E00E94870A68EC70E045
:1020500080E090E00E940807C1E0D0E090E3492EC4
:10206000512C8091DD068111BBC480910C01882325
:1020700011F083E601C083EE80937C0065E070E0A0
:1020800080E090E00E9408078091DC06882349F0F8
:1020900040910B0160911E0420E081E090E050E04F
:1020A00057C080910A01863018F082EE80937A0042
:1020B00080910A01853019F483EE80937A00809133
:1020C0000A01843019F484EE80937A0080910A0129
:1020D000833019F485EE80937A0080910A01823072
:1020E00019F486EE80937A0080910A01823018F408
:1020F00087EE80937A0080910A01EFE1F4E081118C
:1021000022C080917A0084FFFCCF80917A008061A8
:1021100080937A008BEC97E00197F1F7809179003A
:10212000819306E0EB3DF00761F7B2CF80917A0032
:10213000806180937A0080917900819316E0EB3D75
:10214000F10709F4A5CF80917A0084FFFCCFEECF90
:1021500051110FC0FC01E15EFB4F3081341710F0CC
:102160000C94751B431720F4682F21E051E001C047
:1021700021E001968F3F910559F760931E0480E29C
:10218000282E84E0382EF10120E030E0819190E0AB
:10219000281739070CF49C0145E0EE31F407B1F73C
:1021A00030931D0420931C040E943E0C8091DC0699
:1021B000882309F4A3C060911A0470911B0477FF6F
:1021C00002C0695F7F4F13E0759567951A95E1F737
:1021D0009B012A5F3F4FEE24E394F12C08E010E0CE
:1021E00048E050E088E897E00E94AB0560911A044F
:1021F00070911B0477FF02C0695F7F4FE3E0759524
:102200006795EA95E1F79B012A5F3F4FEE24E3943F
:10221000F12C09E010E049E050E088E897E00E94E6
:10222000AB0583E080931904C0901A04D0901B047E
:10223000C601815E9B4F5C01A7E09A2EBFE26B2E28
:10224000712C80911A0490911B04815B9F4F8C1517
:102250009D050CF4D1C090910A018091190497302A
:1022600010F48F5F07C0973011F48E5F03C0983071
:1022700019F48D5F809319049FEFC91AD90AE09170
:102280001904F0E0D5014D915D01D601A15EBB4F6F
:102290008C91692D0E94DF1C8301081B11099F018D
:1022A0002F5F3F4F842F0E94DF1CA301481B510961
:1022B000EE24E394F12CBF0188E897E00E94AB057F
:1022C00080911904E82FF0E0D5018C91692D0E94CE
:1022D000DF1C8201081B11099F012E5F3F4F1197E0
:1022E0008C910E94DF1CA201481B5109BF016F5F46
:1022F0007F4F88E897E00E94AB05A3CF80910B0148
:1023000067E00E94DF1C41E050E062E070E02FE2F5
:1023100030E0F901E81BF109CF010E94980C83E03D
:1023200080931904C0901E04D12C8601015E1B4FBE
:10233000580197E0992E2FE2622E712C80911E0495
:1023400090E0815B9F4F8C159D050CF453C09091DC
:102350000A0180911904973010F48F5F07C09730FD
:1023600011F48E5F03C0983019F48D5F80931904C7
:102370001FEFC11AD10AE0911904F0E0D5014D9187
:102380005D01D601A15EBB4F8C91692D0E94DF1CBF
:102390008301081B11099F012F5F3F4F842F0E946B
:1023A000DF1CA301481B5109EE24E394F12CBF016B
:1023B00088E897E00E94AB0580911904E82FF0E0CF
:1023C000D5018C91692D0E94DF1C8201081B110927
:1023D0009F012E5F3F4F11978C910E94DF1CA2013D
:1023E000481B5109BF016F5F7F4F88E897E00E944B
:1023F000AB05A4CF10921E040FE210E021E030E004
:10240000A80160E070E088E897E00E94760321E090
:1024100030E0A80161E070E088E897E00E94760370
:1024200021E030E0A80162E070E088E897E00E94D7
:102430007603075011090530110501F70FE210E08E
:1024400021E030E0A80165E170E088E897E00E94B3
:10245000760321E030E0A8016AE270E088E897E0C6
:102460000E94760321E030E0A8016FE370E088E885
:1024700097E00E947603035011090530110501F71A
:10248000E0E6F2E0808182608083DF01A85AB10932
:102490008C9188608C933396B2E0E13BFB0791F717
:1024A0001092950710929407109297071092960732
:1024B00080911804811147C01092990710929807D3
:1024C000D0939B07C0939A0780910C01882349F011
:1024D00041E050E060E070E080EA90E40E945C0B34
:1024E00004C08EE793E00E940E0BD0939B07C0932D
:1024F0009A07D0939907C09398078AEA93E00E94BD
:102500000E0B60910A0170E080E090E04AE00E94CA
:102510001B0B82E893E00E940E0B109117048BE0D6
:102520000E94AF0621E0892B09F020E012130C94E1
:102530007B1B8DE00E94AF0621E0892B09F020E093
:1025400012130C947B1B80911804813009F058C041
:1025500080910C01882349F041E050E060E070E098
:1025600080EA90E40E945C0B04C08EE793E00E9436
:102570000E0B1092990710929807D0939B07C09367
:102580009A078AEA93E00E940E0B60910A0170E0BC
:1025900080E090E04AE00E941B0BD0939B07C09321
:1025A0009A07D0939907C093980782E893E00E9416
:1025B0000E0B109117048BE00E94AF0621E0892BCF
:1025C00009F020E0121749F080910A0181508093B0
:1025D0000A018F3F11F410920A018DE00E94AF06AC
:1025E00021E0892B09F020E0121751F080910A01B7
:1025F0008F5F80930A01893019F488E080930A0183
:1026000080911804823009F069C080910C01882300
:1026100049F041E050E060E070E080EA90E40E9420
:102620005C0B04C08EE793E00E940E0B8AEA93E0F5
:102630000E940E0B60910A0170E080E090E04AE099
:102640000E941B0B1092990710929807D0939B073A
:10265000C0939A0782E893E00E940E0BD0939B07E9
:10266000C0939A07D0939907C093980781E080930D
:10267000DC06109117048BE00E94AF0621E0892B45
:1026800009F020E0121779F080911A0490911B0450
:102690000A9790931B0480931A0497FF04C010922A
:1026A0001B0410921A048DE00E94AF0621E0892BD2
:1026B00009F020E0121791F080911A0490911B0408
:1026C0000A9690931B0480931A048D36924034F03E
:1026D0008CE692E090931B0480931A048091180476
:1026E000833009F071C010921B0410921A041092EA
:1026F000DC0680910C01882349F041E050E060E065
:1027000070E080EA90E40E945C0B04C08EE793E0E6
:102710000E940E0B8AEA93E00E940E0B60910A0160
:1027200070E080E090E04AE00E941B0B82E893E0BA
:102730000E940E0B109117048BE00E94AF0621E05F
:10274000892B09F020E0121751F080910B01845180
:1027500080930B01843118F484E180930B018DE0A8
:102760000E94AF0621E0892B09F020E0121751F0FA
:1027700080910B018C5E80930B01873E18F086EEF2
:1027800080930B0180910B0107E0F02E6F2D0E94CA
:10279000DF1C0FE210E041E050E065E070E09801DE
:1027A000281B3109C9010E94980C80910B016F2DE3
:1027B0000E94DF1C40E050E062E070E0D801A81BFE
:1027C000B109CD010E94980C109117048CE00E9471
:1027D000AF0621E0892B09F020E0121759F0809113
:1027E00018048F5F80931804843021F41092180429
:1027F0001092DC068091FC038823A9F02FB7F8948F
:102800008091FD039091FE03A091FF03B09100041D
:102810001092FC032FBF8093130490931404A09391
:102820001504B093160490900B01A0900A0190E05B
:10283000B12C812CC12CD12C760101E010E080E07C
:10284000811161C7F1012081291540F4921610F021
:102850000C94721CB02E8824839455C78110F6CF37
:10286000911157C70F5F1F4F5FEF251A350A0F3FB2
:10287000110531F780910C01882311F40C94551C3B
:1028800060911C0470911D04072E000C880B990B9D
:102890000E94901E20E030E040EA50E40E94451F74
:1028A00020E030E04FE753E40E94E61D4B015C015D
:1028B00020E030E040E250E40E94401F1816A4F4EB
:1028C0006091130470911404809115049091160482
:1028D0000E948E1E0E94581E60930F047093100475
:1028E000809311049093120420E030E040E250E421
:1028F000C501B4010E94E11D87FDD7C780910F0477
:1029000090911004A0911104B0911204883E93405C
:10291000A105B10594F48AEA93E00E940E0B609140
:102920000F047091100480911104909112040E9480
:102930006E0C86E893E00E940E0B60910F0470917C
:1029400010048091110490911204693EF3E07F0716
:102950008105910584F00E94901E20E030E04AE756
:1029600054E40E94E61D41E050E00E945C0B85E8C3
:1029700093E00E940E0B109295071092940788E244
:1029800090E0909397078093960780910C01609157
:102990001C0470911D04882309F496C7072E000CAF
:1029A000880B990B0E94901E20E030E040EA50E432
:1029B0000E94451F20E030E04FE753E40E94E61DEF
:1029C00041E050E00E945C0B8CE793E00E940E0B0C
:1029D00068EC70E080E090E00E9408070E94CF0A57
:1029E0008091DD06813009F07AC30E943E0C80910F
:1029F0000C041091170481116CC08BE00E94AF068B
:102A000021E0892B09F020E01217B1F140910A046E
:102A100050910B04052E000C660B770B8091000182
:102A200090910101A0910201B0910301841B950BCB
:102A3000A60BB70B8093000190930101A0930201B4
:102A4000B0930301B7FF08C010920001109201017A
:102A50001092020110920301609100017091010136
:102A600080910201909103010E94870A64E670E060
:102A700080E090E00E9408078DE00E94AF0621E010
:102A8000892B09F020E0121709F463C040910A0471
:102A900050910B04052E000C660B770B8091000102
:102AA00090910101A0910201B09103018A019B0163
:102AB000080F191F2A1F3B1FC901B801009300010D
:102AC0001093010120930201309303010E94870AB1
:102AD0003AC08BE00E94AF0621E0892B09F020E08C
:102AE0001217C1F080910401909105010197909314
:102AF0000501809304011816190634F084E690E06D
:102B0000909305018093040164E670E080E090E01A
:102B10000E9408078DE00E94AF0621E0892B09F092
:102B200020E01217B1F08091040190910501019607
:102B300090930501809304018536910524F0D0938C
:102B40000501C093040164E670E080E090E00E941B
:102B50000807109117048CE00E94AF0621E0892B32
:102B600009F020E0121779F064E670E080E090E070
:102B70000E940807809109048F5F809309048530C3
:102B800010F0109209047724739470929C0785E1E9
:102B900090E0909395078093940785E090E0909360
:102BA00097078093960789E893E00E940E0B609147
:102BB000040170910501072E000C880B990B0E94EF
:102BC0006E0C8EE893E00E940E0B809104019091B0
:102BD000050149E2642E689EB001699E700D1124C2
:102BE000072E000C880B990B0E94901E20E030E00D
:102BF00048EC52E40E94E61D6B017C0120E030E0CD
:102C000048E252E40E94751D0E94581E4B015C016F
:102C1000A701960160E070E084E292E40E94741DD6
:102C20000E94581EEE24E394F12C00E010E0940181
:102C300040E050E088E897E00E94AB0580910401F5
:102C400090910501689EB001699E700D1124072EB8
:102C5000000C880B990B0E94901E20E030E048EC9D
:102C600052E40E94E61D6B017C0120E030E044E26A
:102C700052E40E94751D0E94581E4B015C01A70181
:102C8000960160E070E088E292E40E94741D0E9468
:102C9000581EEE24E394F12C01E010E0940141E091
:102CA00050E088E897E00E94AB0580910401909184
:102CB0000501689EB001699E700D1124072E000C5D
:102CC000880B990B0E94901E20E030E048EC52E403
:102CD0000E94E61D6B017C0120E030E040E252E4FE
:102CE0000E94751D0E94581E4B015C01A7019601B0
:102CF00060E070E08CE292E40E94741D0E94581E15
:102D0000EE24E394F12C02E010E0940142E050E064
:102D100088E897E00E94AB0580910401909105013D
:102D2000689EB001699E700D1124072E000C880B5F
:102D3000990B0E94901E20E030E048EC52E40E9483
:102D4000E61D6B017C0120E030E048E252E40E9485
:102D5000751D0E94581E4B015C01A701960160E0A1
:102D600070E084E292E40E94741D0E94581EEE24DA
:102D7000E394F12C00E110E0940140E150E088E898
:102D800097E00E94AB058091040190910501689E37
:102D9000B001699E700D1124072E000C880B990B51
:102DA0000E94901E20E030E048EC52E40E94E61DB4
:102DB0006B017C0120E030E044E252E40E94751D8A
:102DC0000E94581E4B015C01A701960160E070E073
:102DD00088E292E40E94741D0E94581EEE24E3943F
:102DE000F12C0FE010E094014FE050E088E897E00C
:102DF0000E94AB058091040190910501689EB0018D
:102E0000699E700D1124072E000C880B990B0E94EF
:102E1000901E20E030E048EC52E40E94E61D6B0179
:102E20007C0120E030E040E252E40E94751D0E94E7
:102E3000581E4B015C01A701960160E070E08CE236
:102E400092E40E94741D0E94581EEE24E394F12C1B
:102E50000EE010E094014EE050E088E897E00E9418
:102E6000AB0582E080939C076091000170910101A5
:102E700080910201909103010E94901E0E94581EB1
:102E8000683E13E07107810591059CF422E130E072
:102E9000309395072093940724E130E0309397070F
:102EA000209396070E946E0C70929C0786E893E030
:102EB00047C024E030E0309395072093940724E145
:102EC00030E03093970720939607603127E272072E
:102ED000810591055CF40E94901E20E030E04AE7F5
:102EE00054E40E94E61D43E050E023C0603A36E817
:102EF000730731E0830791055CF40E94901E20E087
:102F000030E04AE754E40E94E61D42E050E011C080
:102F1000603442E474074FE08407910564F40E9432
:102F2000901E20E030E04AE754E40E94E61D41E0B4
:102F300050E00E945C0B81E080939C0785E893E061
:102F40000E940E0B80910904811103C08BE090E078
:102F500013C0813019F48FE090E00EC0823019F474
:102F60008CE090E009C0833019F488E090E004C060
:102F7000843061F482E090E0909395078093940709
:102F800086E290E0909397078093960781E0809384
:102F90009C0780E993E00E940E0B10929907109213
:102FA0009807D0939B07C0939A078AEA93E00E9400
:102FB0000E0B80910904843020F483E993E00E9491
:102FC0000E0B8091090481110EC041E050E060E0D9
:102FD00070E080E89FE30E945C0BD0930B04C093E9
:102FE0000A0410920C0480910904813071F440E0CD
:102FF00050E060E070E080E291E40E945C0B8AE0C7
:1030000090E090930B0480930A048091090482302D
:1030100071F440E050E060E070E088EC92E40E94DF
:103020005C0B84E690E090930B0480930A048091FB
:103030000904833071F440E050E060E070E08AE71A
:1030400094E40E945C0B88EE93E090930B048093D1
:103050000A04809109048430A9F485E993E00E9470
:103060000E0B6091040170910501072E000C880B76
:10307000990B0E946E0C8EE893E00E940E0B81E08B
:1030800080930C048AEA93E00E940E0BD0939B0776
:10309000C0939A07D0939907C09398078AE993E061
:1030A0000E940E0B6091040170910501072E000C27
:1030B000880B990B0E94901E23E333E343E250E414
:1030C0000E94451F0E945F1E89E00E94FC0764E683
:1030D00070E080E090E00E9408070E94CF0A809193
:1030E000DD06823009F013C180910104811141C0D5
:1030F0000E9418090091170410E08DE00E94AF06AD
:103100000817190759F18BE00E94AF060817190735
:1031100029F18CE00E94AF0608171907F9F0009119
:103120000D0410910E04F801E853FF4F6081862FC3
:1031300090E090930501809304018AE00E94FC07CF
:103140000F5F1F4F10930E0400930D040032110502
:1031500089F610920E0410920D04CCCF80910104D8
:103160008F5F8093010468EC70E080E090E00E9443
:10317000080780910104813009F041C00E941809BC
:103180000091170410E08DE00E94AF0608171907A0
:1031900059F18BE00E94AF060817190729F18CE05E
:1031A0000E94AF0608171907F9F000910D0410915D
:1031B0000E04F801E855FF4F6081862F90E0909350
:1031C0000501809304018AE00E94FC070F5F1F4FF6
:1031D00010930E0400930D040032110589F610922D
:1031E0000E0410920D04CCCF809101048F5F809368
:1031F000010468EC70E080E090E00E940807809194
:103200000104823009F041C00E941809009117049E
:1032100010E08DE00E94AF060817190759F18BE006
:103220000E94AF060817190729F18CE00E94AF062B
:1032300008171907F9F000910D0410910E04F80118
:10324000E857FF4F6081862F90E0909305018093AF
:1032500004018AE00E94FC070F5F1F4F10930E04C9
:1032600000930D040032110589F610920E0410929D
:103270000D04CCCF809101048F5F8093010468EC32
:1032800070E080E090E00E940807809101048330A4
:10329000F1F50E9418090091170410E08DE00E94DA
:1032A000AF060817190759F18BE00E94AF060817FF
:1032B000190729F18CE00E94AF0608171907F9F0E9
:1032C00000910D0410910E04F801E859FF4F608140
:1032D000862F90E090930501809304018AE00E947C
:1032E000FC070F5F1F4F10930E0400930D04003274
:1032F000110589F610920E0410920D04CCCF109295
:10330000010468EC70E080E090E00E940807809182
:10331000DD06833009F0E5C10E943E0C109299074A
:1033200010929807D0939B07C0939A071092950725
:103330001092940710929707109296078DE993E0E8
:103340000E94300CD0939B07C0939A07D0939907A3
:10335000C09398078BE190E0909395078093940732
:103360000AE010E010939707009396078CEA93E029
:103370000E94300C1092990710929807D0939B07E7
:10338000C0939A07109395070093940784E190E007
:10339000909397078093960783EB93E00E940E0B20
:1033A000D0939B07C0939A07D0939907C09398072F
:1033B0008AEA93E00E94300C609106017091070147
:1033C0008091080190910901603157E275078105EC
:1033D000910564F42EE130E0309395072093940733
:1033E00029E130E030939707209396078B019C01E9
:1033F000005117422109310901391F45214031058A
:1034000048F42BE130E0309395072093940729E1AD
:1034100030E00DC0613AB6E87B07B1E08B0791055B
:1034200054F029E130E030939507209394073093CE
:103430009707209396070E946E0C8AEA93E00E94F9
:10344000300C1092990710929807D0939B07C09365
:103450009A0785E490E0909395078093940784E120
:1034600090E0909397078093960785EB93E00E94F6
:10347000300CD0939B07C0939A07D0939907C093C1
:1034800098078CE090E0909395078093940786E2EC
:1034900090E0909397078093960787EB93E00E94C4
:1034A000300C109117048DE00E94AF0621E0892BAB
:1034B00009F020E01217A1F0809106019091070118
:1034C000A0910801B091090180559B4FAF4FBF4FAC
:1034D0008093060190930701A0930801B09309011E
:1034E0008BE00E94AF0621E0892B09F020E0121743
:1034F000A1F08091060190910701A0910801B0917F
:103500000901805B9440A109B10980930601909361
:103510000701A0930801B0930901809106019091E1
:103520000701A0910801B0910901803B9440A105D9
:10353000B10564F420E03FEC43E050E02093060145
:1035400030930701409308015093090180910601CF
:1035500090910701A0910801B091090181309F4C21
:10356000A340B10564F080EB94E0A0E0B0E080936C
:10357000060190930701A0930801B09309018CE024
:103580000E94AF0621E0892B09F020E0121709F410
:10359000A0C0C0900601D0900701E0900801F09013
:1035A000090160E079E08DE390E0A70196010E94B7
:1035B000FF1CDA01C9010197A109B109B695A795C8
:1035C000979587959C01E091FB06F091FC0682E0BF
:1035D0008083C11491EED906E104F10421F0211594
:1035E000A0E13A07B8F0E091FB06F091FC061082EA
:1035F00060E874E88EE190E0A70196010E94FF1C4C
:10360000DA01C9010197A109B109B695A795979566
:1036100087959C01E091F706F091F8063083E091E0
:10362000F906F091FA06208310920307E091FF0655
:10363000F091000786E08083E091FD06F091FE06A0
:10364000808180618083E091FD06F091FE0680819B
:1036500088608083E091FD06F091FE06808180689D
:103660008083E091FD06F091FE0680818F7D80834E
:103670000E943E0C64E670E080E090E00E94080743
:103680000E94CF0A00E010E0C0E0D0E08BEE96E0B0
:103690000E947E0218161906CCF78BEE96E00E9467
:1036A0005C02D0939507C0939407109397070093FB
:1036B00096070E94100B0E94CF0A2696C435D105AA
:1036C00021F4085F1F4FC0E0D0E000331105F1F690
:1036D000CFCF64E670E080E090E00E9408070E948F
:1036E000CF0A0E941E030C943110222311F40C9473
:1036F000B9100C94B21090910C0181E0892780934D
:103700000C010C94A312F1018081891508F0E7C027
:1037100081E0D1019C91991608F0A3C0B5E0BA15DB
:10372000F0F4B8016B19710961507109072E000C92
:10373000880B990B0E94901E2EEA37E441E550E475
:103740000E94451F9B01AC0160E074E284E799E4AC
:103750000E94E61D0E94581E6B017C013EC0E5E000
:10376000AE121CC0B8016B197109072E000C880B32
:10377000990B0E94901E2EEA37E441E550E40E9426
:10378000451F9B01AC0160E074E284E799E40E946C
:10379000E61D20E030E040E05FE35CC0F4E0AF1203
:1037A0001CC0B8016B197109072E000C880B990B0E
:1037B0000E94901E2EEA37E441E550E40E94451F26
:1037C0009B01AC0160E074E284E799E40E94E61D8D
:1037D00020E030E040E85EE33DC023E0A2121CC0E0
:1037E000B8016B197109072E000C880B990B0E9408
:1037F000901E2EEA37E441E550E40E94451F9B01EC
:10380000AC0160E074E284E799E40E94E61D20E0E8
:1038100030E040E05EE31EC032E0A31225C0B801F4
:103820006B197109072E000C880B990B0E94901ED2
:103830002EEA37E441E550E40E94451F9B01AC01AC
:1038400060E074E284E799E40E94E61D20E030E045
:1038500040E05DE30E94451F0E94581E6B017C0101
:1038600020C091E00C943214F1E0AF16C1F2A11027
:1038700018C0C8018B19910944EF51E0849F900151
:10388000859F300D949F300D1124032E000C440BA6
:10389000550B60E472E48FE090E00E94211D690105
:1038A0007A0190E080E00C943214C701B6010E94C6
:1038B000901E0E94581E60930F0470931004809312
:1038C0001104909312041AC8072E000C880B990B50
:1038D0000E94901E2DEC3CEC4CE85FE369C881E04F
:1038E0000C943014882483940C943014EBEEF6E09E
:1038F0001382128288EE93E0A0E0B0E08483958387
:10390000A683B78385E293E09183808385EC90E082
:103910009587848784EC90E09787868780EC90E099
:10392000918B808B81EC90E0938B828B82EC90E08A
:10393000958B848B86EC90E0978B868B118E128E04
:10394000138E148EE8E8F7E01382128224E530E04B
:103950003583248380E390E09783868331872087B3
:1039600093878287158A158614861786168681E0C6
:10397000848B2FEF3FEF338B228B318B208B868B09
:1039800085E393E09183808386E0878B87E0808F57
:1039900084E0818F82E0828F83E0838F0895DB0152
:1039A0008F939F930E944F1DBF91AF91A29F800D57
:1039B000911DA39F900DB29F900D11240895991B06
:1039C00079E004C0991F961708F0961B881F7A9516
:1039D000C9F78095089597FB072E16F4009407D039
:1039E00077FD09D00E945A1D07FC05D03EF4909542
:1039F00081959F4F0895709561957F4F0895A1E23D
:103A00001A2EAA1BBB1BFD010DC0AA1FBB1FEE1F58
:103A1000FF1FA217B307E407F50720F0A21BB30BA3
:103A2000E40BF50B661F771F881F991F1A9469F71F
:103A300060957095809590959B01AC01BD01CF017B
:103A40000895052E97FB1EF400940E94381D57FD23
:103A500007D00E94FF1C07FC03D04EF40C94381DC5
:103A600050954095309521953F4F4F4F5F4F0895AA
:103A700090958095709561957F4F8F4F9F4F0895DA
:103A8000A29FB001B39FC001A39F700D811D11249F
:103A9000911DB29F700D811D1124911D08950E94EA
:103AA000401DA59F900DB49F900DA49F800D911D6A
:103AB00011240895AA1BBB1B51E107C0AA1FBB1FFD
:103AC000A617B70710F0A61BB70B881F991F5A95AA
:103AD000A9F780959095BC01CD010895EE0FFF1FC9
:103AE0000590F491E02D09945058BB27AA270E9415
:103AF0008C1D0C94061F0E94F81E38F00E94FF1EB9
:103B000020F039F49F3F19F426F40C94F51E0EF4BE
:103B1000E095E7FB0C94EF1EE92F0E94171F58F366
:103B2000BA17620773078407950720F079F4A6F5A2
:103B30000C94391F0EF4E0950B2EBA2FA02D0B011B
:103B4000B90190010C01CA01A0011124FF27591BE2
:103B500099F0593F50F4503E68F11A16F040A22FE8
:103B6000232F342F4427585FF3CF46953795279559
:103B7000A795F0405395C9F77EF41F16BA0B620B58
:103B8000730B840BBAF09150A1F0FF0FBB1F661F9F
:103B9000771F881FC2F70EC0BA0F621F731F841FE2
:103BA00048F4879577956795B795F7959E3F08F008
:103BB000B0CF9395880F08F09927EE0F97958795CA
:103BC00008950E94CB1E08F481E008950E94FA1D1A
:103BD0000C94061F0E94FF1E58F00E94F81E40F031
:103BE00029F45F3F29F00C94EF1E51110C943A1FF9
:103BF0000C94F51E0E94171F68F39923B1F3552307
:103C000091F3951B550BBB27AA27621773078407EF
:103C100038F09F5F5F4F220F331F441FAA1FA9F385
:103C200035D00E2E3AF0E0E832D091505040E69573
:103C3000001CCAF72BD0FE2F29D0660F771F881FD4
:103C4000BB1F261737074807AB07B0E809F0BB0BC7
:103C5000802DBF01FF2793585F4F3AF09E3F5105DB
:103C600078F00C94EF1E0C943A1F5F3FE4F3983EFB
:103C7000D4F3869577956795B795F7959F5FC9F7C4
:103C8000880F911D9695879597F90895E1E0660F45
:103C9000771F881FBB1F621773078407BA0720F0BE
:103CA000621B730B840BBA0BEE1F88F7E095089527
:103CB0000E945F1E6894B1110C943A1F08950E94EF
:103CC0001F1F88F09F5798F0B92F9927B751B0F070
:103CD000E1F0660F771F881F991F1AF0BA95C9F790
:103CE00014C0B13091F00E94391FB1E008950C94D6
:103CF000391F672F782F8827B85F39F0B93FCCF389
:103D0000869577956795B395D9F73EF4909580950C
:103D1000709561957F4F8F4F9F4F0895E89409C02C
:103D200097FB3EF490958095709561957F4F8F4FEE
:103D30009F4F9923A9F0F92F96E9BB279395F69504
:103D4000879577956795B795F111F8CFFAF4BB0F82
:103D500011F460FF1BC06F5F7F4F8F4F9F4F16C0E6
:103D6000882311F096E911C0772321F09EE8872F70
:103D7000762F05C0662371F096E8862F70E060E02C
:103D80002AF09A95660F771F881FDAF7880F9695A5
:103D9000879597F90895990F0008550FAA0BE0E849
:103DA000FEEF16161706E807F907C0F012161306FD
:103DB000E407F50798F0621B730B840B950B39F43D
:103DC0000A2661F0232B242B252B21F408950A26A3
:103DD00009F4A140A6958FEF811D811D089597F9E3
:103DE0009F6780E870E060E008959FEF80EC0895A1
:103DF00000240A94161617061806090608950024CA
:103E00000A9412161306140605060895092E039443
:103E1000000C11F4882352F0BB0F40F4BF2B11F4B7
:103E200060FF04C06F5F7F4F8F4F9F4F089557FD16
:103E30009058440F551F59F05F3F71F04795880F18
:103E400097FB991F61F09F3F79F0879508951216AF
:103E500013061406551FF2CF4695F1DF08C016165B
:103E600017061806991FF1CF86957105610508940C
:103E70000895E894BB2766277727CB0197F9089523
:103E80000E94CB1E08F48FEF08950E94581F0C94D7
:103E9000061F0E94F81E38F00E94FF1E20F0952396
:103EA00011F00C94EF1E0C94F51E11240C943A1F83
:103EB0000E94171F70F3959FC1F3950F50E0551F97
:103EC000629FF001729FBB27F00DB11D639FAA276F
:103ED000F00DB11DAA1F649F6627B00DA11D661FBE
:103EE000829F2227B00DA11D621F739FB00DA11DDF
:103EF000621F839FA00D611D221F749F3327A00D99
:103F0000611D231F849F600D211D822F762F6A2F34
:103F100011249F5750409AF0F1F088234AF0EE0F99
:103F2000FF1FBB1F661F771F881F91505040A9F7C6
:103F30009E3F510580F00C94EF1E0C943A1F5F3F9A
:103F4000E4F3983ED4F3869577956795B795F79502
:103F5000E7959F5FC1F7FE2B880F911D969587957A
:103F600097F908950E94CB1E880B990B089581E064
:0C3F700090E0F8940C94BC1FF894FFCF74
:103F7C00F4010000320000E10000061E0100000008
:103F8C000000000000000000000000000000000025
:103F9C000000000000000000000000000000000015
:103FAC00000000C0E0F0F8FCFCFEFFFCE0000000AC
:103FBC0000000000000000000000000000000000F5
:103FCC0000000000000000000000000000000000E5
:103FDC0000000000000000000000000000000000D5
:103FEC000000F8F8F8F8F8F8F8F8F8F8F8F8F0F045
:103FFC00E0E0C080C0FCFFFFFFFF7F3F7FFFFFFFC3
:10400C00FFFF0000000000000000000000000000A6
:10401C000000000000000000000000000000000094
:10402C000000000000000000000000000000000084
:10403C00000000000000000F1F3F7FFFFFFFFFFF8D
:10404C00FFFFFFE7C7C7878F9F9FFFFFFFC1C0E040
:10405C00FCFFFFFFFFFFFCFCFCFCFEFEFEFCFCF883
:10406C00F8F0E0C0C00000000000000000000000FC
:10407C000000000000000000000000000000000034
:10408C00000000000000000000000000000080C0E4
:10409C00E0F1FBFFFFFFFFFF7F1F0F0F87E7FFFF25
:1040AC00FF1F1F3FF9F8F8F8F8F8F8FDFFFFFFFFC6
:1040BC00FFFFFFFFFF7F3F0F070100000000000024
:1040CC0000000000000000000000000000000000E4
:1040DC0000000000000000000000000000000000D4
:1040EC00F0FEFFFFFFFFFFFFFFFFFFFFFE7E3F3FE6
:1040FC000F1FFFFFFFFCF0E0F1FFFFFFFFFFFCF0E5
:10410C00010101010101010100000000000000009B
:10411C000000000000000000000000000000000093
:10412C000000000000000000000000000000000083
:10413C000000000003030303030303030101010157
:10414C0000000000000000030F1F3F7F7FFFFFFFF8
:10415C00FF7F7F1F03000000000000000000000034
:10416C000000000000000000000000000000000043
:10417C00000000000000000100080020004000804A
:10418C0000000100040000010008004000000100D4
:10419C000400000000B502F1097E025C027002FC12
:1041AC000200000000B003F1097603AB0545052FB2
:1041BC00055C05FA04DC04AF032053636F706520C3
:1041CC00002047656E657261746F72200044445321
:1041DC002D67656E657261746F7200205465726D27
:1041EC00696E616C2000566261743D005600312E80
:1041FC0031002050004B487A0050574D3D002500AF
:10420C003E3E00780050574D20003C3C00202020C2
:10421C005465726D696E616C202020005370656569
:10422C00643A002D002B004F4B202D2073746172CB
:10423C0074002053696E65200020547269616E67AA
:10424C006C65200020536177200020696E765361E5
:10425C007720006E616E00696E66006F7666000DE9
:02426C000A0046
:00000001FF
